:100000000C94E8010C9410020C9410020C94100251
:100010000C9410020C9410020C94AC0C0C94100272
:100020000C9410020C9410020C9410020C94100208
:100030000C9410020C9410020C9410020C941002F8
:100040000C94F8130C9410020C94850F0C94B70FB9
:100050000C9410020C9410020C9410020C941002D8
:100060000C9410020C9410022076616C75653D00B2
:10007000476F7420726573706F6E73652073697A51
:10008000653D004661696C65642C20726573706F14
:100090006E73652074696D6564206F75742E004EF3
:1000A0006F772073656E64696E67206C656E677428
:1000B000682000504120506F77657209203D20254F
:1000C000530D0A00435243204C656E677468092043
:1000D0003D2025530D0A004D6F64656C0909203DD4
:1000E0002025530D0A004461746120526174650932
:1000F000203D2025530D0A0044594E50442F4645BB
:10010000415455524500434F4E4649470052465FC1
:1001100053455455500052465F434800454E5F5288
:10012000584144445200454E5F41410052585F508F
:10013000575F50302D360054585F414444520052AE
:10014000585F414444525F50322D350052585F4150
:100150004444525F50302D31000D0A002530327872
:1001600000203078002553092563203D000D0A004A
:1001700020307825303278002553092563203D0052
:100180004F4253455256455F54583D253032783AD8
:1001900020504F4C535F434E543D257820415243ED
:1001A0005F434E543D25780D0A0053544154555336
:1001B0000909203D203078253032782052585F449C
:1001C000523D25782054585F44533D2578204D41B9
:1001D000585F52543D25782052585F505F4E4F3D36
:1001E00025782054585F46554C4C3D25780D0A0023
:1001F0001112131415160A0B0C0D0E0F0001020339
:1002000004052002190211020A0250415F4D4158B3
:100210000050415F484947480050415F4C4F5700EC
:1002200050415F4D494E003C0235022D02313620CF
:100230006269747300382062697473004469736181
:10024000626C656400530249026E524632344C308F
:10025000312B006E524632344C30310070026A024B
:1002600062023235304B42505300324D42505300FF
:10027000314D42505300000000080002010000030D
:100280000407000000000000000001020408102024
:100290004080010204081020010204081020040418
:1002A000040404040404020202020202030303031E
:1002B00003030000000023002600290000000000C6
:1002C000250028002B0000000000240027002A0041
:1002D00000407A10F35A00A0724E18090010A5D4FD
:1002E000E80000E87648170000E40B54020000CA5A
:1002F0009A3B000000E1F5050000809698000000A0
:1003000040420F000000A0860100000010270000FE
:100310000000E803000000006400000000000A0084
:10032000000000000100000000002C76D888DC6787
:100330004F0823DFC1DFAE59E1B1B796E5E3E453DF
:10034000C63AE651997696E8E6C28426EB898C9BFC
:1003500062ED407C6FFCEFBC9C9F40F2BAA56FA59C
:10036000F490055A2AF75C936B6CF9676DC11BFC1E
:10037000E0E40D47FEF520E6B500D0ED902E030039
:10038000943577050080841E080000204E0A000086
:1003900000C80C333333330F986E12831141EF8D45
:1003A0002114893BE65516CFFEE6DB18D1844B3885
:1003B0001BF77C1D901DA4BBE424203284725E22B6
:1003C0008100C9F124ECA1E53D27BF05E70FD80561
:1003D00011241FBECFEFD8E0DEBFCDBF11E0A0E0FB
:1003E000B1E0E2E7F0E402C005900D92A838B10751
:1003F000D9F722E0A8E8B1E001C01D92A938B20700
:10040000E1F713E0CEECD3E004C02297FE010E9496
:100410008718CA3CD107C9F70E94E7130C942C2017
:100420000C94000025E631E0FC013183208308951F
:1004300025E631E0FC01318320830C94F613CF9341
:10044000DF9368E570E080E090E00E947114C0E006
:10045000D0E0BE0186E00E94FB146CE070E080E01A
:1004600090E00E9471142196C835D10591F7C8E536
:10047000D0E0BE0186E00E94FB146CE070E080E0FA
:1004800090E00E9471142197A1F760E086E00E943D
:10049000BC1560E870E080E090E0DF91CF910C94B3
:1004A00071140F931F93CF93DF9361E080E10E945B
:1004B000BC1560E089E00E94BC1568E570E080E052
:1004C00090E00E9471148EE00E94DE14EC0160E066
:1004D00080E10E94BC1568E570E080E090E00E9439
:1004E000711460E080E10E94BC1561E089E00E9427
:1004F000BC1568E570E080E090E00E9471148EE029
:100500000E94DE148C0160E089E00E94BC1560E06E
:1005100080E10E94BC15C8018C1B9D0B81509C4F33
:1005200097FD019695958795DF91CF911F910F913A
:100530000895CF92DF92EF92FF926C0161E086E026
:100540000E94BC15EE24D7FCE094FE2CC701B60136
:100550000E94711460E086E00E94BC15C701B601DC
:10056000FF90EF90DF90CF900C947114CF92DF92B8
:10057000EF92FF92CF937C01C62FD72E89EA91E0AC
:100580000E94C6086FE970E089ED91E00E94681052
:100590004AE050E06C2F7D2D89ED91E00E947111B1
:1005A000B70189ED91E00E94BC104C2FB70189EA98
:1005B00091E00E94650989EA91E00E94820A0E9406
:1005C00042146B017C01C0E089EA91E00E94AA0913
:1005D00081111AC0CC2359F063E870E089ED91E0F5
:1005E000CF91FF90EF90DF90CF900C94AA100E94D3
:1005F00042146C197D098E099F09C1E0653F714065
:100600008105910508F7DFCFC111E6CF89EA91E0B6
:100610000E946809F82E882351F1482F68E871E09C
:1006200089EA91E00E94AE09EF2DF0E0E857FE4F15
:10063000108260E770E089ED91E00E9468104AE066
:1006400050E06F2D89ED91E00E94961168E670E010
:1006500089ED91E00E94681068E871E089ED91E011
:10066000CF91FF90EF90DF90CF900C94BC10CF9182
:10067000FF90EF90DF90CF900895CF92DF92EF92AE
:10068000FF92CF93DF9361E081E10E94831560E0E8
:1006900081E10E94BC15C3E0D0E060E370E080E03F
:1006A00090E00E94711485E10E94DE149093C801CD
:1006B0008093C701219789F7BC01882777FD809532
:1006C000982F0E94201723E333E343E550E40E9470
:1006D000D41720E030EC4FE754E40E9485169B01CC
:1006E000AC010E941D166B017C0160910A017091A2
:1006F0000B01882777FD8095982F0E9420179B017A
:10070000AC01C701B6010E94811687FF06C06DE0EB
:1007100071E08BEB91E00E94351360E081E10E9473
:1007200083156FE071E089ED91E00E948D1022E069
:1007300030E0B701A60189ED91E00E948812C7015F
:10074000B601DF91CF91FF90EF90DF90CF900895A9
:10075000EF92FF920F931F9326E040E052EC61E08E
:1007600070E089ED91E00E94230F89EA91E00E94F8
:100770002D0B89EA91E00E94CA0A4FE065E089EA00
:1007800091E00E94600C01EE10EF20EF30EF40EF9F
:1007900050E060E070E089EA91E00E94BA0932ED31
:1007A000E32E40EFF42E00EF20EF30E040E050E089
:1007B00061E089EA91E00E94F50989EA91E00E94EE
:1007C000820A89EA91E00E94BF0B61E086E00E9404
:1007D000831560E085E10E94831560E081E10E945D
:1007E000831561E080E10E94831561E089E00E9449
:1007F000831560E08EE00E94831561E084E00E9432
:10080000831589EC91E00E94C70C80E590E00E947E
:10081000990280E590E01F910F91FF90EF900C946A
:100820009902CF93DF930E945102EC010E94510282
:10083000C80FD91F0E9451028C0F9D1F63E070E00A
:100840000E943B18EB016FE171E089ED91E00E949D
:100850008D104AE050E0BE0189ED91E00E947111D7
:100860008091060190910701C817D90794F46FE2AF
:1008700071E08BEB91E00E94AC1380E890E00E9465
:10088000990280E890E00E94990280E890E00E943E
:100890009902DF91CF9108952F923F924F925F92EC
:1008A0006F927F928F929F92AF92BF92CF92DF9280
:1008B000EF92FF920F931F93CF93DF93CDB7DEB7E5
:1008C00060970FB6F894DEBF0FBECDBF2DB73EB711
:1008D000388B2F87209008013090090161E371E087
:1008E0008BEB91E00E9435130E943D032B013C01EC
:1008F0000E9411044C0161E084E00E94BC1566E294
:1009000070E080E090E00E94711460E089EC91E07A
:100910000E94870D0E94ED166B877C878D879E87CE
:100920000B851C8589EC91E00E94FB0D0E94ED1661
:100930006B017C015B012B853C85B901882777FD24
:100940008095982F0E9420179B01AC010E943718B8
:100950008111EAC0B601882777FD8095982F0E9403
:1009600020179B01AC010E9437188111DDC00115D1
:10097000110509F4D9C0C114D10409F4D5C062E14C
:1009800070E080E090E00E94711460E084E00E94DA
:10099000BC1563E371E089ED91E00E948D104AE09F
:1009A00050E0B80189ED91E00E94711166E471E0B8
:1009B00089ED91E00E948D104AE050E0B50189ED8B
:1009C00091E00E9471114AE064E170E0CE0101966D
:1009D0000E944D13BE016F5F7F4F81EC91E00E943A
:1009E0001E13CE0101960E949A126CE571E081EC13
:1009F00091E00E94AC136BEB71E081EC91E00E94FE
:100A0000A5136CE571E081EC91E00E94AC134AE023
:100A1000B401CE0101960E944D13BE016F5F7F4F5E
:100A200081EC91E00E94A513CE0101960E949A12DA
:100A30006CE571E081EC91E00E94AC134AE0B801F2
:100A4000CE0101960E944D13BE016F5F7F4F81EC76
:100A500091E00E94A513CE0101960E949A126CE5C6
:100A600071E081EC91E00E94AC134AE0B501CE0147
:100A700001960E944D13BE016F5F7F4F81EC91E0A4
:100A80000E94A513CE0101960E949A126CE571E0B6
:100A900081EC91E00E94AC138E010F5F1F4F23E0A9
:100AA00045E0C301B2010E948B18B80181EC91E0CE
:100AB0000E94AC130091C5010F5F10E08DB79EB787
:100AC000801B910B0FB6F8949EBF0FBE8DBF2DB744
:100AD0003EB72F5F3F4F790120E030E0A801B7011A
:100AE00081EC91E00E94BC130E941F0289EA91E010
:100AF0000E940E09B801C7010E94B60289EA91E07E
:100B00000E94FC0800E010E002151305C4F420E088
:100B100030E040E050E066E070E088ED91E00E9457
:100B2000690C0F5F1F4FF0CF6EE571E08BEB91E02A
:100B30000E94AC13A12CB12C00E010E020CF8F85D7
:100B400098890FB6F8949EBF0FBE8DBF60960FB602
:100B5000F894DEBF0FBECDBFDF91CF911F910F91F3
:100B6000FF90EF90DF90CF90BF90AF909F908F90CD
:100B70007F906F905F904F903F902F90089526E068
:100B80004BE065E089EC91E00E94C00C65E471E007
:100B900081EC91E00E94081361E371E08BEB91E03E
:100BA0000E94081348E067E089EA91E00C94B108DC
:100BB00085E691E09093AA018093A9018BEB91E0E7
:100BC0000E949A1281EC91E00C949A12CF93CFB7C5
:100BD000F8948091D701811116C061E08AE00E94EB
:100BE000BC1561E08AE00E9483158CB580618CBDE4
:100BF0008CB580648CBD61E08DE00E94831561E05E
:100C00008BE00E9483158091D7018F5F8093D7017D
:100C1000CFBFCF9108958EBD00000DB407FEFDCF6C
:100C20008EB508952CB52F7D2CBD2CB5237F2CBD02
:100C30002CB52C7F2CBD2DB521602DBDFC018381F1
:100C40000E94BC1585E090E00C949914FC0182810F
:100C5000938189130C94BC150895CF92DF92EF9283
:100C6000FF920F931F93CF93DF9300D0CDB7DEB7E2
:100C70008C01E62EF22E60E049835A830E94120610
:100C80008E2D8F710E940B06E82E4981C42E5A8149
:100C9000D52EF40EFC1439F08FEF0E940B06F601EE
:100CA00081936F01F7CF61E0C8010E9412068E2D7B
:100CB0000F900F90DF91CF911F910F91FF90EF90C8
:100CC000DF90CF9008951F93CF93DF93EC01162F01
:100CD00060E00E941206812F8F710E940B068FEF39
:100CE0000E940B06182F61E0CE010E941206812F90
:100CF000DF91CF911F910895CF92DF92EF92FF92F3
:100D00000F931F93CF93DF9300D0CDB7DEB78C0145
:100D1000E62EF22E60E049835A830E9412068E2D41
:100D20008F7180620E940B06E82E4981C42E5A8181
:100D3000D52EF40EFC1431F0F60181916F010E9462
:100D40000B06F8CF61E0C8010E9412068E2D0F90AD
:100D50000F90DF91CF911F910F91FF90EF90DF9057
:100D6000CF900895EF92FF921F93CF93DF931F923E
:100D7000CDB7DEB77C01162F60E049830E941206D2
:100D8000812F8F7180620E940B06182F4981842F5A
:100D90000E940B0661E0C7010E941206812F0F908E
:100DA000DF91CF911F91FF90EF900895AF92BF9286
:100DB000CF92DF92EF92FF920F931F93CF93DF9327
:100DC00000D0CDB7DEB78C01D62EFC01E580F42E25
:100DD000E41608F4FE2CF8018681811102C0EF1898
:100DE00001C0E12C60E0C80129837A830E941206C9
:100DF0002981822F0E940B06C82EAD2C7A81B72E36
:100E0000FD0CFA1431F0F50181915F010E940B068F
:100E1000F8CFEE2029F080E00E940B06EA94F9CF8B
:100E200061E0C8010E9412068C2D0F900F90DF9197
:100E3000CF911F910F91FF90EF90DF90CF90BF90D7
:100E4000AF900895AF92BF92CF92DF92EF92FF9250
:100E50000F931F93CF93DF931F92CDB7DEB78C0113
:100E6000D62EFC01E580F42EE41608F4FE2CF801E1
:100E70008681811102C0EF1801C0E12C60E0C80139
:100E800079830E94120681E60E940B06C82EAD2CC3
:100E90007981B72EFD0CFA1439F08FEF0E940B0602
:100EA000F50181935F01F7CFEE2029F08FEF0E94CB
:100EB0000B06EA94F9CF61E0C8010E9412068C2D5E
:100EC0000F90DF91CF911F910F91FF90EF90DF90E6
:100ED000CF90BF90AF9008951F93CF93DF93EC0115
:100EE000162F60E00E941206812F0E940B06182F19
:100EF00061E0CE010E941206812FDF91CF911F91F8
:100F0000089562EE0C946C0761EE0C946C076FEF21
:100F10000C946C07862F90E0262F21701F922F9340
:100F200095958795877099279F938F9364FB882762
:100F300080F91F928F9365FB882780F91F928F930A
:100F400066FB882780F91F928F931F926F938AEA1E
:100F500091E09F938F930E94F51A8DB79EB70E96DE
:100F60000FB6F8949EBF0FBE8DBF0895AF92BF928B
:100F7000DF92EF92FF920F931F93CF93DF9300D0F6
:100F8000CDB7DEB78C01F42EE22ECB0169837A83D4
:100F90000E949D1A69817A81089710F489E001C046
:100FA00087E01F928F937F936F93E8E7F1E0FF93C1
:100FB000EF930E94F51AEF0C0F900F900F900F9087
:100FC0000F900F9030E7A32E31E0B32EFE1499F06E
:100FD000DD24D394DF0C6F2DC8010E9463061F929D
:100FE0008F93BF92AF920E94F51A0F900F900F90BF
:100FF0000F90FD2CEBCF8DE691E09F938F930E9495
:10100000F51A0F900F900F900F90DF91CF911F91D5
:101010000F91FF90EF90DF90BF90AF9008952F92C7
:101020003F924F925F926F927F928F929F92AF9278
:10103000BF92CF92DF92EF92FF920F931F93CF93C5
:10104000DF9300D01F92CDB7DEB77C01242E322E65
:101050004DB65EB6CB016A837B830E949D1A6A817E
:101060007B81089710F489E001C087E01F928F937D
:101070007F936F9385E691E09F938F930E94F51A7B
:10108000320C0F900F900F900F900F900F9041E641
:10109000C42E41E0D42E5CE5A52E51E0B52E2314DC
:1010A000E9F16DB67EB6F7012485822E912C8DB7BD
:1010B0009EB7881999090FB6F8949EBF0FBE8DBFD1
:1010C0000DB71EB70F5F1F4F91E0920D9983A801D6
:1010D000622DC7010E942D06DF92CF920E94F51A61
:1010E000800E911E0F900F90F1E08F1A91088016DC
:1010F000910668F0F40180811F928F93BF92AF92A6
:101100000E94F51A0F900F900F900F90EDCF0FB631
:10111000F8947EBE0FBE6DBE2980C1CF89E591E0F7
:101120009F938F930E94F51A0F900F900FB6F8942B
:101130005EBE0FBE4DBE0F900F900F90DF91CF910E
:101140001F910F91FF90EF90DF90CF90BF90AF90E5
:101150009F908F907F906F905F904F903F902F90D7
:101160000895FC0185E691E0918380836283438347
:10117000148280E28583168285E084870895462F55
:10118000603808F04FE765E00C94B206CF93DF9328
:10119000EC0160E00E9426068D859E850E949914D0
:1011A0006DE1CE010E94630681FF07C08D859E859B
:1011B0000E949914CE010E94840760E0CE010E9433
:1011C0006306482F4E7F60E0CE010E94B20662E0C7
:1011D000CE010E946306ECEFF1E0E49121E030E003
:1011E00001C0220FEA95EAF7822B482F62E0CE0178
:1011F000DF91CF910C94B206CF93DF93EC0160E0C6
:101200000E94260660E0CE010E946306482F4D7FB3
:1012100060E0CE01DF91CF910C94B206CF93DF93C3
:10122000EC0160E00E94630681FD12C060E0CE0127
:101230000E946306482F426060E0CE010E94B20621
:1012400065E070E080E090E0DF91CF910C94711444
:10125000DF91CF9108950F93CF93DF93EC01222379
:1012600011F020EB01C020EACE010E94D606002337
:1012700039F061E0CE01DF91CF910F910C942606F9
:10128000DF91CF910F9108950F93CF93DF93EC01EE
:1012900001E00E942B09CE010E9487078073D9F3D9
:1012A00060E0CE010E94260640E767E0CE010E9482
:1012B000B20684FF05C0CE010E94840780E001C011
:1012C00081E0DF91CF910F91089520E00C944409C3
:1012D0001F93CF93DF93EC0160E00E94120680E63B
:1012E0000E940B068FEF0E940B06182F61E0CE01C3
:1012F0000E941206113258F0CE010E94810762E06E
:1013000070E080E090E00E94711480E001C0812FC5
:10131000DF91CF911F9108950F931F93CF93DF9388
:101320008C01EB0167E10E94630680FD0BC02097F2
:1013300059F0C8010E94870790E0959587958770BE
:10134000888302C080E001C081E0DF91CF911F91CE
:101350000F91089560E070E00C948C09CF93DF93B7
:10136000EC010E94220740E767E0CE01DF91CF91B8
:101370000C94B206EF92FF920F931F93CF93DF93DB
:10138000CDB7DEB728970FB6F894DEBF0FBECDBF3E
:101390007C0109831A832B833C834D835E836F8397
:1013A0007887FC012485AE014F5F5F4F6AE00E94A1
:1013B0007C06F7012485AE014F5F5F4F60E1C701F6
:1013C0000E947C06F701458161E1C7010E94B206D7
:1013D00028960FB6F894DEBF0FBECDBFDF91CF9138
:1013E0001F910F91FF90EF900895BF92CF92DF92DF
:1013F000EF92FF920F931F93CF93DF93CDB7DEB79A
:1014000028970FB6F894DEBF0FBECDBF6C01B62E85
:10141000E982FA820B831C832D833E834F83588796
:1014200061110AC0FC01448550E0BE016F5F7F4F2F
:1014300007960E94A61A07C0F6E0F61708F436C011
:1014400081E0681308C0EB2DF0E0EA50FE4F649194
:10145000F601248506C0E62FF0E0EA50FE4F6491C5
:1014600021E0AE014F5F5F4FC6010E947C060B2D4D
:1014700010E0F801E051FE4F6491F6014581C6018C
:101480000E94B20662E0C6010E946306F801E450C1
:10149000FE4F049121E030E001C0220F0A95EAF7E7
:1014A000822B482F62E0C6010E94B20628960FB632
:1014B000F894DEBF0FBECDBFDF91CF911F910F918A
:1014C000FF90EF90DF90CF90BF9008951F93CF9340
:1014D000DF93EC01162F62E00E946306E12FF0E03B
:1014E000E450FE4FE49141E050E001C0440FEA9522
:1014F000EAF74095482362E0CE01DF91CF911F913A
:101500000C94B206CF93DF93EC010E940E0960E0C9
:10151000CE010E946306482F416060E0CE010E9428
:10152000B20640E767E0CE010E94B20661E0CE015C
:101530000E9426068F81882349F02C85AE01495FE1
:101540005F4F6AE0CE010E947C0604C060E0CE01DD
:101550000E94660A6DE1CE010E94630681FF05C00C
:10156000CE01DF91CF910C948407DF91CF91089544
:10157000CF93DF93EC0160E00E94120680E50E94A9
:101580000B0683E70E940B0661E0CE01DF91CF914D
:101590000C941206CF93DF93EC016DE10E94630679
:1015A000482F44606DE1CE010E94B2066CE1CE018D
:1015B0000E946306482F4F636CE1CE010E94B20681
:1015C00081E08E83DF91CF91089566E00E946306EB
:1015D000867086950895EF92FF920F931F93CF9395
:1015E000DF931F92CDB7DEB77C018B0166E00E94CE
:1015F0006306582F577D0230110531F450620BE914
:1016000010E020E030E00DC00130110529F005E5C3
:1016100010E020E030E005C0586001E410E020E078
:1016200030E0F701058716872787308B452F66E066
:10163000C70159830E94B20666E0C7010E94630693
:1016400091E05981851390E0892F0F90DF91CF9120
:101650001F910F91FF90EF900895CF93DF93EC01CE
:101660008A819B81891719F061E00E9483158B8123
:101670009A81981719F061E00E9483150E94E6058F
:1016800060E0CE010E94260661E0CE010E941206B3
:1016900065E070E080E090E00E9471144CE060E052
:1016A000CE010E94B2064FE564E0CE010E94B20670
:1016B00062E070E0CE010E94EB0A882311F081E025
:1016C0008C8360E070E0CE010E94EB0ACE010E94A4
:1016D000B80A40E06DE1CE010E94B20640E06CE144
:1016E000CE010E94B20640E767E0CE010E94B2063A
:1016F0006CE4CE010E94BF08CE010E948107CE019A
:101700000E948407CE010E940E0960E0CE010E9473
:101710006306482F4E7F60E0CE01DF91CF910C949D
:10172000B20666E00E946306282F2872203231F04C
:1017300081E090E0283021F080E0089582E090E0A0
:1017400008951F93CF93DF93EC0160E00E9463063E
:10175000182F61E0CE010E94630613FD02C08823AA
:1017600029F012FF06C082E090E005C080E090E022
:1017700002C081E090E0DF91CF911F910895CF9357
:10178000DF93EC010E948707682FCE010E948A0731
:1017900022E04AE06CE471E0CE010E940F0824E0F0
:1017A0004CE06FE371E0CE010E94B60721E040E11A
:1017B00067E371E0CE010E940F0826E041E16CE290
:1017C00071E0CE010E94B60721E041E066E271E0DF
:1017D000CE010E94B60721E042E06CE171E0CE014B
:1017E0000E94B60721E045E066E171E0CE010E946B
:1017F000B60721E046E06DE071E0CE010E94B60739
:1018000021E040E066E071E0CE010E94B60722E0F0
:101810004CE168EF70E0CE010E94B607CE010E9455
:10182000910B880F991F845A9D4FFC0185919491CB
:101830009F938F9386EE90E09F938F930E94F51A6B
:10184000EC81F0E0EE0FFF1FEB5BFD4F8591949173
:101850009F938F9387ED90E09F938F930E94F51A4B
:10186000CE010E94A10B880F991F895D9D4FFC013D
:10187000859194919F938F9384EC90E09F938F93A5
:101880000E94F51ACE010E94E50AE82FF0E0EE0F63
:10189000FF1FEE5FFD4F859194919F938F9383EB94
:1018A00090E09F938F930E94F51A8DB79EB7409654
:1018B0000FB6F8949EBF0FBE8DBFDF91CF910895F4
:1018C00020E1629FB00111244F70462B64E00C941C
:1018D000B2064115510529F480917A008F778093E3
:1018E0007A006A307105B1F063FF02C088E201C07E
:1018F00088E06770682B88E190E00FB6F894A895AF
:10190000809360000FBE60936000809160008064EF
:101910008093600083B7817F846083BF232B51F461
:10192000F89483B7816083BF85B7806685BF8F7D5C
:1019300085BF04C0F89483B7816083BF789488958D
:1019400083B78E7F83BF7894452B29F480917A00EA
:10195000806880937A0008951F920F920FB60F92BD
:1019600011248F9388E10FB6F89480936000109251
:1019700060000FBE8F910F900FBE0F901F901895B3
:10198000FC0166834783208781E085870895CF9394
:10199000DF93EC0160E08E810E94831561E08E810F
:1019A0000E94BC1519861A861B861C86DF91CF9172
:1019B0000895DF92EF92FF920F931F93CF93DF93DF
:1019C000EC010E94421409851A852B853C8560171D
:1019D00071078207930720F419861A861B861C86D6
:1019E0002D85211111C009851A852B853C85DC01C7
:1019F000CB01801B910BA20BB30B803D9740A1053F
:101A0000B10510F481E07BC01D860E9442146987F5
:101A10007A878B879C871C821B821A821982188284
:101A200061E08E810E94BC156AEF70E080E090E07A
:101A30000E94711461E08E810E94831560E08E81A6
:101A40000E94BC1564E170E080E090E00E94711497
:101A5000F89461E08E810E94BC1588E290E00E94BB
:101A6000991460E08E810E948315F12CD12C81E0C5
:101A7000E12C082F10E08E810E94F215801791074B
:101A800041F4E39481E090E00E9499148FEFE81212
:101A9000F2CF8E810E94F2159FEFE916C9F023E084
:101AA0002F1590F4F0FC10C09D2D96959695969567
:101AB000FE01E90FF11D9081990F908328852E1565
:101AC00010F491609083D394F39495E5F912D0CFFC
:101AD000789427E22D1590F42C8130E0488189819B
:101AE00090E0840F911D4A81840F911D4B81840FDA
:101AF000911D99272817390709F484CF80E0DF91D9
:101B0000CF911F910F91FF90EF90DF900895CF92AA
:101B1000DF92EF92FF920F931F93CF93DF93EC012D
:101B2000162F0E94D90C882309F450C08F818B3066
:101B300031F008F44BC08551823078F047C06A819B
:101B400070E080E090E00E941E17112309F443C06A
:101B500020E030E040E151E42AC00A81602F6F7735
:101B600070E080E090E00E94201720E030E040E844
:101B700053E40E94D4176B017C016B8170E080E01C
:101B800090E00E9420179B01AC01C701B6010E94A2
:101B90001D1620E030E040E251E40E94851607FD6A
:101BA00090581123D9F020E030E040E151E40E9448
:101BB000D41720E030E040EA50E40E94851620E08F
:101BC00030E040E052E40E941D1608C020E030E002
:101BD00040EC5FE705C09B01AC0102C09B01AC017A
:101BE000B901CA01DF91CF911F910F91FF90EF9042
:101BF000DF90CF900895CF92DF92EF92FF92CF9334
:101C0000DF93EC010E94D90C882379F18F818B300E
:101C100029F158F18551823040F5688170E080E00B
:101C200090E00E941E1720E030E040E853E40E945C
:101C3000D4176B017C01698170E080E090E00E9424
:101C400020179B01AC01C701B6010E941D1620E0C0
:101C500030E040E251E40E9485160BC0688170E0DC
:101C600080E090E00E941E1704C060E070E080EC0D
:101C70009FE7DF91CF91FF90EF90DF90CF90089595
:101C8000FC01818D228D90E0805C9F4F821B910929
:101C90008F7399270895FC01918D828D981731F0EB
:101CA000828DE80FF11D858D90E008958FEF9FEFF5
:101CB0000895FC01918D828D981761F0828DDF016E
:101CC000A80FB11D5D968C91928D9F5F9F73928F2F
:101CD00090E008958FEF9FEF08958DED9FE0892BA1
:101CE00049F080E090E0892B29F00E94DD0F8111FE
:101CF0000C9400000895FC01848DDF01A80FB11D34
:101D0000A35ABF4F2C91848D90E001968F73992731
:101D1000848FA689B7892C93A089B1898C9180641E
:101D20008C93938D848D981306C00288F389E02DDF
:101D300080818F7D80830895CF93DF93EC01888D20
:101D40008823C9F0EA89FB89808185FD05C0A889BF
:101D5000B9898C9186FD0FC00FB607FCF5CF808145
:101D600085FFF2CFA889B9898C9185FFEDCFCE018F
:101D70000E947B0EE7CFDF91CF910895CF92DF9243
:101D8000FF920F931F93CF93DF931F92CDB7DEB7D0
:101D90006C01DC015B969C915B975C968C915C97E7
:101DA000981307C05096ED91FC915197808185FD65
:101DB00032C0F601038D10E00F5F1F4F0F73112724
:101DC000F02EF601848DF81211C00FB607FCF9CF82
:101DD000D6015096ED91FC915197808185FFF1CF0E
:101DE000C60169830E947B0E6981EBCF838DE80F6A
:101DF000F11DE35AFF4F6083D6015B960C935B970E
:101E00005296ED91FC91539780818062808381E0AE
:101E100058968C930DC0D6015696ED91FC9157972C
:101E200060835096ED91FC9151978081806480830E
:101E300081E090E00F90DF91CF911F910F91FF9083
:101E4000DF90CF900895BF92CF92DF92EF92FF92F2
:101E5000CF93DF93EC016A017B01B22EE889F98907
:101E600082E08083411581EE580761057105A1F07C
:101E700060E079E08DE390E0A70196010E944F18A1
:101E800021503109410951095695479537952795B4
:101E9000211580E1380798F0E889F989108260E817
:101EA00074E88EE190E0A70196010E944F1821503E
:101EB0003109410951095695479537952795EC8584
:101EC000FD853083EE85FF852083188EEC89FD89A2
:101ED000B082EA89FB89808180618083EA89FB89FD
:101EE000808188608083EA89FB8980818068808323
:101EF000EA89FB8980818F7D8083DF91CF91FF907C
:101F0000EF90DF90CF90BF9008951F920F920FB681
:101F10000F9211242F938F939F93EF93FF93E09150
:101F2000E901F091EA018081E091EF01F091F00187
:101F300082FD12C090818091F2018F5F8F7320919A
:101F4000F301821751F0E091F201F0E0E752FE4F09
:101F5000958F8093F20101C08081FF91EF919F9155
:101F60008F912F910F900FBE0F901F9018951F9279
:101F70000F920FB60F9211242F933F934F935F93BD
:101F80006F937F938F939F93AF93BF93EF93FF9341
:101F900089ED91E00E947B0EFF91EF91BF91AF918F
:101FA0009F918F917F916F915F914F913F912F9171
:101FB0000F900FBE0F901F90189589ED91E00E9431
:101FC000400E21E0892B09F420E0822F0895109221
:101FD000DC011092DB0188EE93E0A0E0B0E080939A
:101FE000DD019093DE01A093DF01B093E0018DE667
:101FF00091E09093DA018093D90185EC90E0909381
:10200000E6018093E50184EC90E09093E8018093F1
:10201000E70180EC90E09093EA018093E90181EC84
:1020200090E09093EC018093EB0182EC90E0909330
:10203000EE018093ED0186EC90E09093F0018093A7
:10204000EF011092F2011092F3011092F40110923C
:10205000F5010895CF92DF92EF92FF920F931F93B5
:10206000CF93DF936C017A01EB01E60EF71E00E0DF
:1020700010E0CE15DF0561F06991D601ED91FC917C
:102080000190F081E02DC6010995080F191FF1CFCD
:10209000C801DF91CF911F910F91FF90EF90DF90DA
:1020A000CF9008956115710581F0DB010D9000203E
:1020B000E9F7AD0141505109461B570BDC01ED9189
:1020C000FC910280F381E02D099480E090E0089576
:1020D000EF92FF920F931F93CF93DF938C01FB013D
:1020E000C0E0D0E064917F018FEFE81AF80A662320
:1020F00061F0D801ED91FC910190F081E02DC801D3
:102100000995C80FD91FF701EDCFCE01DF91CF910F
:102110001F910F91FF90EF9008950C945210DC01E5
:10212000ED91FC910190F081E02D09940F931F93A4
:10213000CF93DF93EC016DE00E948F108C016AE079
:10214000CE010E948F10800F911FDF91CF911F91C0
:102150000F9108950F931F93CF93DF93EC010E948B
:1021600068108C01CE010E949610800F911FDF91A4
:10217000CF911F910F9108950F931F93CF93DF93EA
:10218000EC010E9452108C01CE010E949610800F2B
:10219000911FDF91CF911F910F9108958F929F9280
:1021A000AF92BF92CF92DF92EF92FF920F931F9365
:1021B000CF93DF93CDB7DEB7A1970FB6F894DEBF0C
:1021C0000FBECDBF7C01C42EE52FCB01D22E19A2AC
:1021D00021E02D1510F02AE0D22E8E010F5D1F4F49
:1021E0008D2C912CA12CB12C6C2D7E2FA50194014E
:1021F0000E944F188C2DD29E801911240150110974
:102200008A3014F4805D01C0895CF8018083211557
:1022100031054105510521F0C22EE32FCA01E4CF5B
:10222000B801C7010E945210A1960FB6F894DEBF04
:102230000FBECDBFDF91CF911F910F91FF90EF9017
:10224000DF90CF90BF90AF909F908F900895CF92E6
:10225000DF92EF92FF920F931F93CF93DF93EC01E6
:102260006A017B012115310579F4E881F98101903A
:10227000F081E02D642FDF91CF911F910F91FF909E
:10228000EF90DF90CF9009942A303105E9F477FF81
:102290001AC06DE20E948F108C0144275527BA01A5
:1022A0004C195D096E097F092AE0CE010E94CE100B
:1022B000800F911FDF91CF911F910F91FF90EF90B1
:1022C000DF90CF9008952AE0B701A601CE01DF91FB
:1022D000CF911F910F91FF90EF90DF90CF900C94D2
:1022E000CE100F931F93CF93DF93EC019A01AB01B4
:1022F000662757FD6095762F0E9427118C01CE012D
:102300000E949610800F911FDF91CF911F910F9126
:1023100008952115310541F4DC01ED91FC91019006
:10232000F081E02D642F09940C94CE109A01462F71
:1023300050E060E070E00C9489114F925F926F92D0
:102340007F928F929F92AF92BF92CF92DF92EF9245
:10235000FF920F931F93CF93DF93EC016A017B01F0
:10236000B22E9A01AB01C701B6010E94371888232B
:1023700019F069E771E027C026013701E89477F882
:102380002FEF3FEF4FE75FE7C301B2010E9437181D
:1023900081110DC02FEF3FEF4FE75FE7C301B2019F
:1023A0000E94811618161CF46DE771E00CC02FEF27
:1023B0003FEF4FE75FE4C701B6010E94D017181640
:1023C000ACF461E871E0CE01DF91CF911F910F91E4
:1023D000FF90EF90DF90CF90BF90AF909F908F9045
:1023E0007F906F905F904F900C9452102FEF3FEFC3
:1023F0004FE75FECC701B6010E94811687FDE1CF70
:1024000020E030E0A901C701B6010E94811687FFD4
:102410000AC06DE2CE010E948F108C01F7FAF09491
:10242000F7F8F09402C000E010E0A12C60E070E04A
:1024300080E09FE3AB1441F020E030E040E251E463
:102440000E948516A394F6CF9B01AC01C701B6018B
:102450000E941D166B017C010E94F2162B013C01AB
:102460000E941E179B01AC01C701B6010E941C16F9
:102470006B017C012AE0B301A201CE010E94CE10C3
:10248000080F191FBB2039F065E871E0CE010E94EA
:102490005210080F191F7B2C772041F120E030E00B
:1024A00040E251E4C701B6010E94D4176B017C01E0
:1024B0000E94ED164B01AA2497FCA094BA2C2AE0A6
:1024C00030E0B501A401CE010E942711080F191FA9
:1024D000C501B4010E9420179B01AC01C701B601E0
:1024E0000E941C166B017C017A94D6CFC801DF9143
:1024F000CF911F910F91FF90EF90DF90CF90BF9001
:10250000AF909F908F907F906F905F904F900895C5
:102510000F931F93CF93DF93EC010E949D118C01C9
:10252000CE010E949610800F911FDF91CF911F91D5
:102530000F910895FC01808191810C944419CF93EF
:10254000DF93EC0188819981009711F00E94441972
:10255000198218821D821C821B821A82DF91CF9100
:1025600008950F931F93CF93DF93EC018B016F5F5F
:102570007F4F888199810E94D319009731F0998308
:1025800088831B830A8381E001C080E0DF91CF91C3
:102590001F910F910895CF93DF93EC01888199816A
:1025A000892B29F08A819B818617970760F4CE01D9
:1025B0000E94B112882341F08C819D81892B19F4EE
:1025C000E881F981108281E0DF91CF910895EF9247
:1025D000FF920F931F93CF93DF93EC017B018A014E
:1025E000BA010E94CB12811104C0CE010E949F1239
:1025F00007C01D830C83B701888199810E94AF1A9F
:10260000CE01DF91CF911F910F91FF90EF90089530
:10261000FC011182108213821282158214826115CC
:10262000710559F0FB0101900020E9F7AF0141501D
:102630005109461B570B0C94E7120895CF93DF9373
:10264000EC01FB018617970761F0608171816115CC
:10265000710529F0448155810E94E71202C00E9451
:102660009F12CE01DF91CF910895CF93DF93EC01BC
:102670006115710561F0FB0101900020E9F7AF01E0
:1026800041505109461B570B0E94E71202C00E949D
:102690009F12CE01DF91CF9108950F931F93CF9397
:1026A000DF93CDB7DEB762970FB6F894DEBF0FBEEB
:1026B000CDBF8C01CB01F8011182108213821282EE
:1026C0001582148250E0BE016F5F7F4F0E94C51AD1
:1026D000BE016F5F7F4FC8010E94351362960FB62F
:1026E000F894DEBF0FBECDBFDF91CF911F910F9148
:1026F0000895EF92FF920F931F93CF93DF93EC0116
:102700007B010C811D816115710511F480E016C0FB
:102710004115510591F0040F151FB8010E94CB120D
:102720008823A1F3288139818C819D81B701820F93
:10273000931F0E94AF1A1D830C8381E0DF91CF911C
:102740001F910F91FF90EF900895FB0144815581F7
:10275000608171810C9479136115710559F0FB0149
:1027600001900020E9F7AF0141505109461B570B7A
:102770000C94791380E008950F931F93CF93DF9308
:10278000EB0141155105E9F02097D9F0FC01648176
:10279000758126173707A0F4621B730B8A0101505D
:1027A00011096017710708F48B01FC0160817181C8
:1027B000620F731FA801CE010E94B61AC00FD11F6D
:1027C0001882DF91CF911F910F91089508950E9473
:1027D000A3140E94E6130E94A803CDE6DEE00E9447
:1027E0004C042097E1F30E946D0EF9CF0C9444192C
:1027F0001F920F920FB60F9211242F933F938F9336
:102800009F93AF93BF938091770290917802A091AC
:102810007902B0917A023091760223E0230F2D37AE
:1028200020F40196A11DB11D05C026E8230F0296D4
:10283000A11DB11D209376028093770290937802B8
:10284000A0937902B0937A0280917B0290917C02EE
:10285000A0917D02B0917E020196A11DB11D8093D1
:102860007B0290937C02A0937D02B0937E02BF9185
:10287000AF919F918F913F912F910F900FBE0F902D
:102880001F9018952FB7F894609177027091780295
:102890008091790290917A022FBF08953FB7F89402
:1028A00080917B0290917C02A0917D02B0917E028A
:1028B00026B5A89B05C02F3F19F00196A11DB11D9B
:1028C0003FBF6627782F892F9A2F620F711D811DB8
:1028D000911D42E0660F771F881F991F4A95D1F717
:1028E0000895CF92DF92EF92FF92CF93DF936B0127
:1028F0007C010E944E14EB01C114D104E104F104E7
:1029000089F00E941B160E944E146C1B7D0B683EC2
:10291000734090F381E0C81AD108E108F108C8516A
:10292000DC4FEACFDF91CF91FF90EF90DF90CF9017
:102930000895019739F0880F991F880F991F029702
:102940000197F1F70895789484B5826084BD84B5C9
:10295000816084BD85B5826085BD85B5816085BD9A
:10296000EEE6F0E0808181608083E1E8F0E01082B3
:10297000808182608083808181608083E0E8F0E0F4
:10298000808181608083E1EBF0E0808184608083DE
:10299000E0EBF0E0808181608083EAE7F0E0808115
:1029A0008460808380818260808380818160808375
:1029B0008081806880831092C10008958E3008F075
:1029C0008E50877020910C0190E4299F9001112472
:1029D000822B80937C0080917A00806480937A00BF
:1029E00080917A0086FDFCCF80917800209179005B
:1029F00090E0922B08951F93CF93DF93182FEB0154
:102A000061E00E948315209711F460E004C0CF3F7D
:102A1000D10539F461E0812FDF91CF911F910C94A2
:102A2000BC15E12FF0E0EA58FD4FE491E330F9F0F6
:102A300048F4E130B9F0E230A1F584B5806284BD9C
:102A4000C8BD34C0E730E9F0E83019F1E43049F5A9
:102A500080918000806280938000D0938B00C0932F
:102A60008A0024C084B5806884BDC7BD1FC0809122
:102A70008000806880938000D0938900C093880094
:102A800015C08091B00080688093B000C093B300FF
:102A90000DC08091B00080628093B000C093B400FC
:102AA00005C0C038D1050CF0B5CFAFCFDF91CF91C5
:102AB0001F910895833081F028F4813099F082309D
:102AC000A1F008958730A9F08830B9F08430D1F4AE
:102AD000809180008F7D03C0809180008F778093EC
:102AE0008000089584B58F7702C084B58F7D84BD42
:102AF00008958091B0008F7703C08091B0008F7DE2
:102B00008093B0000895CF93DF9390E0FC01E657E7
:102B1000FD4F2491FC01E256FD4F8491882349F139
:102B200090E0880F991FFC01EA53FD4FA591B491E5
:102B300084549D4FFC01C591D4919FB7611108C089
:102B4000F8948C91209582238C93888182230AC0EB
:102B5000623051F4F8948C91322F309583238C930A
:102B60008881822B888304C0F8948C91822B8C936B
:102B70009FBFDF91CF9108950F931F93CF93DF9362
:102B80001F92CDB7DEB7282F30E0F901EA58FD4F8C
:102B90008491F901E657FD4F1491F901E256FD4F7A
:102BA00004910023C9F0882321F069830E945A15FB
:102BB0006981E02FF0E0EE0FFF1FE454FD4FA59177
:102BC000B4919FB7F8948C91611103C01095812343
:102BD00001C0812B8C939FBF0F90DF91CF911F91EC
:102BE0000F910895CF93DF93282F30E0F901EA5831
:102BF000FD4F8491F901E657FD4FD491F901E2565A
:102C0000FD4FC491CC2391F081110E945A15EC2FF5
:102C1000F0E0EE0FFF1FEE54FD4FA591B4912C9103
:102C20002D2381E090E021F480E002C080E090E07C
:102C3000DF91CF91089508955058BB27AA270ED051
:102C400075C166D130F06BD120F031F49F3F11F4A3
:102C50001EF45BC10EF4E095E7FB51C1E92F77D17B
:102C600080F3BA17620773078407950718F071F4A9
:102C70009EF58FC10EF4E0950B2EBA2FA02D0B01FF
:102C8000B90190010C01CA01A0011124FF27591BB1
:102C900099F0593F50F4503E68F11A16F040A22FB7
:102CA000232F342F4427585FF3CF46953795279528
:102CB000A795F0405395C9F77EF41F16BA0B620B27
:102CC000730B840BBAF09150A1F0FF0FBB1F661F6E
:102CD000771F881FC2F70EC0BA0F621F731F841FB1
:102CE00048F4879577956795B795F7959E3F08F0D7
:102CF000B3CF9395880F08F09927EE0F9795879596
:102D00000895D9D008F481E008950CD00FC107D1FF
:102D100040F0FED030F021F45F3F19F0F0C05111C7
:102D200039C1F3C014D198F39923C9F35523B1F3F2
:102D3000951B550BBB27AA2762177307840738F02A
:102D40009F5F5F4F220F331F441FAA1FA9F333D089
:102D50000E2E3AF0E0E830D091505040E695001C3D
:102D6000CAF729D0FE2F27D0660F771F881FBB1FF9
:102D7000261737074807AB07B0E809F0BB0B802DD3
:102D8000BF01FF2793585F4F2AF09E3F510568F01F
:102D9000B6C000C15F3FECF3983EDCF386957795B3
:102DA0006795B795F7959F5FC9F7880F911D969521
:102DB000879597F90895E1E0660F771F881FBB1F7D
:102DC000621773078407BA0720F0621B730B840B2A
:102DD000BA0BEE1F88F7E095089504D06894B111FE
:102DE000D9C00895BCD088F09F5790F0B92F99278B
:102DF000B751A0F0D1F0660F771F881F991F1AF006
:102E0000BA95C9F712C0B13081F0C3D0B1E00895CE
:102E1000C0C0672F782F8827B85F39F0B93FCCF34F
:102E2000869577956795B395D9F73EF490958095FB
:102E3000709561957F4F8F4F9F4F0895E89409C01B
:102E400097FB3EF490958095709561957F4F8F4FDD
:102E50009F4F9923A9F0F92F96E9BB279395F695F3
:102E6000879577956795B795F111F8CFFAF4BB0F71
:102E700011F460FF1BC06F5F7F4F8F4F9F4F16C0D5
:102E8000882311F096E911C0772321F09EE8872F5F
:102E9000762F05C0662371F096E8862F70E060E01B
:102EA0002AF09A95660F771F881FDAF7880F969594
:102EB000879597F90895990F0008550FAA0BE0E838
:102EC000FEEF16161706E807F907C0F012161306EC
:102ED000E407F50798F0621B730B840B950B39F42C
:102EE0000A2661F0232B242B252B21F408950A2692
:102EF00009F4A140A6958FEF811D811D089597F9D2
:102F00009F6780E870E060E008959FEF80EC08958F
:102F100000240A94161617061806090608950024B8
:102F20000A9412161306140605060895092E039432
:102F3000000C11F4882352F0BB0F40F4BF2B11F4A6
:102F400060FF04C06F5F7F4F8F4F9F4F089557FD05
:102F50009058440F551F59F05F3F71F04795880F07
:102F600097FB991F61F09F3F79F08795089512169E
:102F700013061406551FF2CF4695F1DF08C016164A
:102F800017061806991FF1CF8695710561050894FB
:102F90000895E894BB2766277727CB0197F9089512
:102FA0008ADF08F48FEF08950BD0C0CFB1DF28F08F
:102FB000B6DF18F0952309F0A2CFA7CF1124EACFEE
:102FC000C6DFA0F3959FD1F3950F50E0551F629F88
:102FD000F001729FBB27F00DB11D639FAA27F00D72
:102FE000B11DAA1F649F6627B00DA11D661F829F99
:102FF0002227B00DA11D621F739FB00DA11D621F7E
:10300000839FA00D611D221F749F3327A00D611D9A
:10301000231F849F600D211D822F762F6A2F11247C
:103020009F5750408AF0E1F088234AF0EE0FFF1FCF
:10303000BB1F661F771F881F91505040A9F79E3F06
:10304000510570F05CCFA6CF5F3FECF3983EDCF308
:10305000869577956795B795F795E7959F5FC1F743
:10306000FE2B880F911D9695879597F9089523DF7C
:10307000880B990B089597FB072E16F4009407D040
:1030800077FD09D00E94711807FC05D03EF4909599
:1030900081959F4F0895709561957F4F0895A1E2A6
:1030A0001A2EAA1BBB1BFD010DC0AA1FBB1FEE1FC2
:1030B000FF1FA217B307E407F50720F0A21BB30B0D
:1030C000E40BF50B661F771F881F991F1A9469F789
:1030D00060957095809590959B01AC01BD01CF01E5
:1030E0000895AA1BBB1B51E107C0AA1FBB1FA6174F
:1030F000B70710F0A61BB70B881F991F5A95A9F7A1
:1031000080959095BC01CD010895EE0FFF1F0590AD
:10311000F491E02D0994EF920F931F93CF93DF93D7
:10312000E80147FF02C034E101C034E0E42FFF278B
:10313000E7FDF095F7FF03C0F195E195F109E32E66
:10314000022F2E2FAE010E94E91CCE01DF91CF91FC
:103150001F910F91EF900895CF93DF9382309105E7
:1031600010F482E090E0E0918102F091820220E090
:1031700030E0A0E0B0E0309739F14081518148174C
:103180005907B8F04817590771F482819381109755
:1031900029F013969C938E9312972CC090938202E1
:1031A0008093810227C02115310531F04217530762
:1031B00018F0A901DB0101C0EF019A01BD01DF0197
:1031C0000280F381E02DD7CF21153105F9F0281BBE
:1031D000390B2430310580F48A819B81611571059A
:1031E00021F0FB019383828304C090938202809339
:1031F0008102FE01329644C0FE01E20FF31F81936B
:10320000919322503109398328833AC020917F025B
:1032100030918002232B41F420910201309103016F
:103220003093800220937F022091000130910101B0
:103230002115310541F42DB73EB74091040150915D
:103240000501241B350BE0917F02F0918002E2170B
:10325000F307A0F42E1B3F0B2817390778F0AC01B9
:103260004E5F5F4F2417350748F04E0F5F1F509396
:10327000800240937F028193919302C0E0E0F0E0EE
:10328000CF01DF91CF910895CF93DF93009709F499
:1032900087C0FC01329713821282C0918102D091C3
:1032A0008202209781F420813181280F391F80917B
:1032B0007F02909180028217930779F5F093800244
:1032C000E0937F026DC0DE0120E030E0AE17BF0763
:1032D00050F412964D915C9113979D014115510543
:1032E00009F1DA01F3CFB383A28340815181840FC6
:1032F000951F8A179B0771F48D919C911197840FEC
:10330000951F02969183808312968D919C911397BD
:10331000938382832115310529F4F0938202E0938F
:1033200081023EC0D9011396FC93EE9312974D9102
:103330005D91A40FB51FEA17FB0779F48081918195
:10334000840F951F0296D90111969C938E938281CA
:10335000938113969C938E931297E0E0F0E08A811C
:103360009B81009719F0FE01EC01F9CFCE01029686
:1033700028813981820F931F20917F023091800232
:103380002817390769F4309729F4109282021092B5
:10339000810202C013821282D0938002C0937F0206
:1033A000DF91CF910895A0E0B0E0E9EDF9E10C9450
:1033B000F91FEC01CB01209719F40E94AC18B8C09A
:1033C000FE01E60FF71F9E0122503109E217F307B5
:1033D00008F4ACC0D9010D911C911197061717077D
:1033E000B8F00530110508F49FC0A80144505109F8
:1033F0004617570708F498C002501109061B170B0F
:10340000019311936D937C93CF010E9444198CC05A
:103410005B01A01AB10A4E01800E911EA09181029B
:10342000B0918202612C712C60E070E0109709F479
:1034300049C0A815B905C9F5ED90FC901197670131
:1034400042E0C40ED11CCA14DB0478F147018A188B
:103450009B08640142E0C40ED11C1296BC901297E6
:103460001396AC91B5E0CB16D10440F0B282A383A1
:1034700091828082D9018D939C9309C00E5F1F4F6A
:103480000E0D1F1DF90111830083EB2DFA2F61151D
:10349000710531F0DB011396FC93EE93129744C053
:1034A000F0938202E09381023FC06D917C9111976D
:1034B0006616770608F43B01BD0112960D90BC918B
:1034C000A02DB4CF60917F027091800268157905BC
:1034D000E9F468167906D0F4409100015091010199
:1034E0004115510541F44DB75EB7609104017091EB
:1034F0000501461B570BE417F507C0F4F093800253
:10350000E0937F02F901918380830EC00E94AC1882
:103510007C01009759F0A801BE010E94A61ACE01B5
:103520000E944419C70104C0CE0102C080E090E0AF
:10353000CDB7DEB7EEE00C941520FC01059000201D
:10354000E9F7809590958E0F9F1F0895FB01DC0190
:1035500002C001900D9241505040D8F70895FB01F0
:10356000DC0101900D920020E1F70895FB01DC01E0
:103570004150504048F001900D920020C9F701C021
:103580001D9241505040E0F708954532510520F416
:10359000423010F00C94D01AFB011082CB01089538
:1035A000BB274A3031F4992322F4BDE290958195EE
:1035B0009F4F0C94DC1ABB27FB015527AA27880FC5
:1035C000991FAA1FA41710F0A41B83955051B9F797
:1035D000A05DAA3308F0A95DA193009779F7B11116
:1035E000B1931192CB010C94551FA0E0B0E0EBEF2A
:1035F000FAE10C940320FE0137966191719105E880
:1036000012E0D8018D919C91DC0113962C911397B7
:10361000286013962C93AF010E94171BD801ED91DF
:10362000FC912381277F2383E4E00C941F20ACE0EE
:10363000B0E0EDE1FBE10C94F51F7C016B018A0128
:10364000FC0117821682838181FFBDC1CE010196E4
:103650004C01F7019381F60193FD859193FF8191D0
:103660006F01882309F4ABC1853239F493FD85914C
:1036700093FF81916F01853229F4B70190E00E9498
:10368000651FE7CF512C312C20E02032A0F48B3283
:1036900069F030F4803259F0833269F420612CC033
:1036A0008D3239F0803339F4216026C022602460E5
:1036B00023C0286021C027FD27C030ED380F3A30E5
:1036C00078F426FF06C0FAE05F9E300D1124532ED9
:1036D00013C08AE0389E300D1124332E20620CC0B6
:1036E0008E3221F426FD6BC1206406C08C3611F4A5
:1036F000206802C0883641F4F60193FD859193FF5E
:1037000081916F018111C1CF982F9F7D9554933086
:1037100028F40C5F1F4FFFE3F9830DC0833631F0AF
:10372000833771F0833509F05BC022C0F8018081D6
:1037300089830E5F1F4F44244394512C540115C0BC
:103740003801F2E06F0E711CF801A080B18026FFF5
:1037500003C0652D70E002C06FEF7FEFC5012C87BD
:103760000E944A1F2C0183012C852F77222E17C01F
:103770003801F2E06F0E711CF801A080B18026FFC5
:1037800003C0652D70E002C06FEF7FEFC5012C878D
:103790000E943F1F2C012C852068222E830123FCD0
:1037A0001BC0832D90E048165906B0F4B70180E2A3
:1037B00090E00E94651F3A94F4CFF50127FC8591B3
:1037C00027FE81915F01B70190E00E94651F3110D3
:1037D0003A94F1E04F1A51084114510471F7E5C0D1
:1037E000843611F0893639F5F80127FF07C060816A
:1037F0007181828193810C5F1F4F08C0608171814C
:10380000882777FD8095982F0E5F1F4F2F76B22E59
:1038100097FF09C090958095709561957F4F8F4F68
:103820009F4F2068B22E2AE030E0A4010E94971F2B
:10383000A82EA81844C0853729F42F7EB22E2AE07E
:1038400030E025C0F22FF97FBF2E8F36C1F018F47B
:10385000883579F0B4C0803719F0883721F0AFC0CF
:103860002F2F2061B22EB4FE0DC08B2D8460B82E98
:1038700009C024FF0AC09F2F9660B92E06C028E019
:1038800030E005C020E130E002C020E132E0F80184
:10389000B7FE07C060817181828193810C5F1F4FE9
:1038A00006C06081718180E090E00E5F1F4FA4012F
:1038B0000E94971FA82EA818FB2DFF77BF2EB6FEDB
:1038C0000BC02B2D2E7FA51450F4B4FE0AC0B2FC01
:1038D00008C02B2D2E7E05C07A2C2B2D03C07A2CF0
:1038E00001C0752C24FF0DC0FE01EA0DF11D808181
:1038F000803311F4297E09C022FF06C073947394AB
:1039000004C0822F867809F0739423FD13C020FF32
:1039100006C05A2C731418F4530C5718732C7314D4
:1039200068F4B70180E290E02C870E94651F7394D1
:103930002C85F5CF731410F4371801C0312C24FFF7
:1039400012C0B70180E390E02C870E94651F2C8590
:1039500022FF17C021FF03C088E590E002C088E77E
:1039600090E0B7010CC0822F867859F021FD02C08B
:1039700080E201C08BE227FD8DE2B70190E00E945A
:10398000651FA51438F4B70180E390E00E94651F1D
:103990005A94F7CFAA94F401EA0DF11D8081B70182
:1039A00090E00E94651FA110F5CF332009F451CE9D
:1039B000B70180E290E00E94651F3A94F6CFF701CC
:1039C0008681978102C08FEF9FEF2C96E2E10C94E5
:1039D00011206F927F929F92AF92BF92CF92DF920F
:1039E000EF92FF920F931F93CF93DF93CDB7DEB784
:1039F00029970FB6F894DEBF0FBECDBF6A01B22E75
:103A0000102F0C3320F4FF24F394F00E02C04CE38B
:103A1000F42E0F2D27E0AE014F5F5F4F0E94671E0F
:103A20007981272F2970213031F0E1FC06C0E0FCBC
:103A300006C060E005C06DE203C06BE201C060E259
:103A4000AE2DA07173FF36C0662311F084E001C073
:103A500083E08B1510F4B81A01C0B12CA1110BC072
:103A6000F6018B2D90E2882319F091938150FBCFC2
:103A7000CB0CD11CB12C662331F0F601608396018A
:103A80002F5F3F4F6901C6010396E2FE05C02EE499
:103A9000F601208331E404C02EE6F601208331E6EE
:103AA00031832283FC012B2D30E22223F1F131936B
:103AB0002150FBCF72FF40C0662311F084E001C0AB
:103AC00083E08B1510F4B81A01C0B12CA1110BC002
:103AD000F6018B2D90E2882319F091938150FBCF52
:103AE000CB0CD11CB12C662331F0F601608396011A
:103AF0002F5F3F4F6901C6010396E2FE07C029E42C
:103B0000F60120832EE4218326E406C029E6F6018F
:103B100020832EE6218326E62283FC012B2D30E232
:103B2000222319F031932150FBCFFC01EB0DF11D45
:103B300010828EEF9FEFB7C0B1E0611101C0B0E01D
:103B40004B2F50E01816190624F49C012F5F3F4FAD
:103B500002C021E030E0240F351F112329F0412F4E
:103B600050E04F5F5F4F02C040E050E0420F531FF4
:103B70002B2D30E04217530714F4B41A01C0B12CB6
:103B80002E2D287159F4F6012B2D30E2222319F045
:103B900031932150FBCFCB0CD11CB12CBB2331F086
:103BA000F601608396012F5F3F4F6901A1110BC0A1
:103BB000F6012B2D30E3222319F031932150FBCF56
:103BC000CB0CD11CB12CF80E0A81372F3071A32EEB
:103BD00074FF03C0013309F4FA941F142CF42F2D41
:103BE000293018F028E001C021E0682F392F97FF15
:103BF00002C060E030E0462F532F612C712C3EE272
:103C0000932EBC01621B71099B01DC01A41BB50B47
:103C1000E1E0F0E0EC0FFD1FAE0FBF1FE12EF12C35
:103C2000F194E194F1084F3FFFEF5F0731F4F601A3
:103C30009082B6016F5F7F4F6B01841795074CF040
:103C40002417350734F4BD01660D771DFB01118182
:103C500001C010E341505109FFEF6F1A7F0AB6010E
:103C60006F5F7F4F4E155F0524F0F60110836B01E7
:103C7000DACF4817590739F4063320F4053319F41D
:103C8000A11001C011E3F6011083FB018B2D90E21E
:103C9000882319F091938150FBCFFB01EB0DF11DAF
:103CA000108280E090E029960FB6F894DEBF0FBE38
:103CB000CDBFDF91CF911F910F91FF90EF90DF90DB
:103CC000CF90BF90AF909F907F906F9008952830D5
:103CD00008F027E03327DA01990F311D87FD916045
:103CE00000966105710539F432602E5F3D9330E333
:103CF0002A95E1F708959F3F30F0803871056105FE
:103D000009F03C5F3C5F3D93913008F08068911D65
:103D1000DF93CF931F930F93FF92EF92192F987F0A
:103D20009695E92F96959695E90FFF27E65DFC4F4E
:103D300099273327EE24FF24A701E7010590089473
:103D4000079428F4360FE71EF81E491F511D660F11
:103D5000771F881F991F0694A1F70590079428F4F0
:103D6000E70EF81E491F561FC11D770F881F991FA8
:103D7000661F0694A1F70590079428F4F80E491FD2
:103D8000561FC71FD11D880F991F661F771F0694E6
:103D9000A1F70590079420F4490F561FC71FD81F9D
:103DA000990F661F771F881F0694A9F784911095B5
:103DB000177041F0D695C79557954795F794E794B6
:103DC0001A95C1F7E0EDF2E06894159015913591E0
:103DD0006591959105907FE27395E118F10A430B87
:103DE000560BC90BD009C0F7E10CF11E431F561F3B
:103DF000C91FD01D7EF4703311F48A95E6CFE89484
:103E0000015030F0080F0AF40027021708F4202FA1
:103E10002395022F7A3328F079E37D932A95E9F7E9
:103E200010C07D932A9589F60694979567953795E6
:103E300017951794E118F10A430B560BC90BD009DB
:103E400098F023957E9173957A3308F070E37C9314
:103E50002013B8F77E9170617D9330F0839571E304
:103E60007D9370E32A95E1F71124EF90FF900F9175
:103E70001F91CF91DF91992787FD90950895FC01BF
:103E80000590615070400110D8F7809590958E0F85
:103E90009F1F0895FC016150704001900110D8F7F8
:103EA000809590958E0F9F1F0895DC01FC01672F70
:103EB00071917723E1F7329704C07C916D93708301
:103EC0006291AE17BF07C8F308950F931F93CF9366
:103ED000DF93182F092FEB018B8181FD03C08FEF3A
:103EE0009FEF20C082FF10C04E815F812C813D81F9
:103EF000421753077CF4E881F9819F012F5F3F4F00
:103F000039832883108306C0E885F985812F0995B8
:103F1000892B29F72E813F812F5F3F4F3F832E83CF
:103F2000812F902FDF91CF911F910F910895FA016A
:103F3000AA27283051F1203181F1E8946F936E7FE8
:103F40006E5F7F4F8F4F9F4FAF4FB1E03ED0B4E0D9
:103F50003CD0670F781F891F9A1FA11D680F791F1A
:103F60008A1F911DA11D6A0F711D811D911DA11D2B
:103F700020D009F468943F912AE0269F112430193B
:103F8000305D3193DEF6CF010895462F4770405DD6
:103F90004193B3E00FD0C9F7F6CF462F4F70405D85
:103FA0004A3318F0495D31FD4052419302D0A9F7E0
:103FB000EACFB4E0A6959795879577956795BA95DA
:103FC000C9F700976105710508959B01AC010A2EA0
:103FD00006945795479537952795BA95C9F7620F77
:103FE000731F841F951FA01D08952F923F924F921B
:103FF0005F926F927F928F929F92AF92BF92CF9279
:10400000DF92EF92FF920F931F93CF93DF93CDB781
:10401000DEB7CA1BDB0B0FB6F894DEBF0FBECDBFF9
:1040200009942A88398848885F846E847D848C84CA
:104030009B84AA84B984C884DF80EE80FD800C81D3
:104040001B81AA81B981CE0FD11D0FB6F894DEBFB6
:104050000FBECDBFED01089513E0CEECD3E004C058
:10406000FE010E9487182296C03DD107C9F7F89437
:02407000FFCF80
:10407200000089028000FA000A00040001340042B4
:10408200617474657279204C6576656C3A200053D0
:104092006F696C204D6F6973747572653A200031D7
:1040A20000300054656D70657261747572652069C7
:1040B2006E20433A200048756D69646974792069FD
:1040C2006E2070657263656E743A20003A00323376
:1040D20000000000001202180200000000BE0E2ABA
:1040E20010400E590E4B0E9C0E6E616E00696E668C
:0840F200006F7666002E00004D
:00000001FF
